{
  "_format": "hh-sol-artifact-1",
  "contractName": "MyEpicNFT",
  "sourceName": "contracts/MyEpicNFT.sol",
  "abi": [
    {
      "inputs": [],
      "stateMutability": "nonpayable",
      "type": "constructor"
    },
    {
      "inputs": [
        {
          "internalType": "address",
          "name": "sender",
          "type": "address"
        },
        {
          "internalType": "uint256",
          "name": "tokenId",
          "type": "uint256"
        },
        {
          "internalType": "address",
          "name": "owner",
          "type": "address"
        }
      ],
      "name": "ERC721IncorrectOwner",
      "type": "error"
    },
    {
      "inputs": [
        {
          "internalType": "address",
          "name": "operator",
          "type": "address"
        },
        {
          "internalType": "uint256",
          "name": "tokenId",
          "type": "uint256"
        }
      ],
      "name": "ERC721InsufficientApproval",
      "type": "error"
    },
    {
      "inputs": [
        {
          "internalType": "address",
          "name": "approver",
          "type": "address"
        }
      ],
      "name": "ERC721InvalidApprover",
      "type": "error"
    },
    {
      "inputs": [
        {
          "internalType": "address",
          "name": "operator",
          "type": "address"
        }
      ],
      "name": "ERC721InvalidOperator",
      "type": "error"
    },
    {
      "inputs": [
        {
          "internalType": "address",
          "name": "owner",
          "type": "address"
        }
      ],
      "name": "ERC721InvalidOwner",
      "type": "error"
    },
    {
      "inputs": [
        {
          "internalType": "address",
          "name": "receiver",
          "type": "address"
        }
      ],
      "name": "ERC721InvalidReceiver",
      "type": "error"
    },
    {
      "inputs": [
        {
          "internalType": "address",
          "name": "sender",
          "type": "address"
        }
      ],
      "name": "ERC721InvalidSender",
      "type": "error"
    },
    {
      "inputs": [
        {
          "internalType": "uint256",
          "name": "tokenId",
          "type": "uint256"
        }
      ],
      "name": "ERC721NonexistentToken",
      "type": "error"
    },
    {
      "anonymous": false,
      "inputs": [
        {
          "indexed": true,
          "internalType": "address",
          "name": "owner",
          "type": "address"
        },
        {
          "indexed": true,
          "internalType": "address",
          "name": "approved",
          "type": "address"
        },
        {
          "indexed": true,
          "internalType": "uint256",
          "name": "tokenId",
          "type": "uint256"
        }
      ],
      "name": "Approval",
      "type": "event"
    },
    {
      "anonymous": false,
      "inputs": [
        {
          "indexed": true,
          "internalType": "address",
          "name": "owner",
          "type": "address"
        },
        {
          "indexed": true,
          "internalType": "address",
          "name": "operator",
          "type": "address"
        },
        {
          "indexed": false,
          "internalType": "bool",
          "name": "approved",
          "type": "bool"
        }
      ],
      "name": "ApprovalForAll",
      "type": "event"
    },
    {
      "anonymous": false,
      "inputs": [
        {
          "indexed": false,
          "internalType": "uint256",
          "name": "_fromTokenId",
          "type": "uint256"
        },
        {
          "indexed": false,
          "internalType": "uint256",
          "name": "_toTokenId",
          "type": "uint256"
        }
      ],
      "name": "BatchMetadataUpdate",
      "type": "event"
    },
    {
      "anonymous": false,
      "inputs": [
        {
          "indexed": false,
          "internalType": "uint256",
          "name": "_tokenId",
          "type": "uint256"
        }
      ],
      "name": "MetadataUpdate",
      "type": "event"
    },
    {
      "anonymous": false,
      "inputs": [
        {
          "indexed": false,
          "internalType": "address",
          "name": "sender",
          "type": "address"
        },
        {
          "indexed": false,
          "internalType": "uint256",
          "name": "tokenId",
          "type": "uint256"
        }
      ],
      "name": "NewEpicNFTMinted",
      "type": "event"
    },
    {
      "anonymous": false,
      "inputs": [
        {
          "indexed": true,
          "internalType": "address",
          "name": "from",
          "type": "address"
        },
        {
          "indexed": true,
          "internalType": "address",
          "name": "to",
          "type": "address"
        },
        {
          "indexed": true,
          "internalType": "uint256",
          "name": "tokenId",
          "type": "uint256"
        }
      ],
      "name": "Transfer",
      "type": "event"
    },
    {
      "inputs": [
        {
          "internalType": "address",
          "name": "to",
          "type": "address"
        },
        {
          "internalType": "uint256",
          "name": "tokenId",
          "type": "uint256"
        }
      ],
      "name": "approve",
      "outputs": [],
      "stateMutability": "nonpayable",
      "type": "function"
    },
    {
      "inputs": [
        {
          "internalType": "address",
          "name": "owner",
          "type": "address"
        }
      ],
      "name": "balanceOf",
      "outputs": [
        {
          "internalType": "uint256",
          "name": "",
          "type": "uint256"
        }
      ],
      "stateMutability": "view",
      "type": "function"
    },
    {
      "inputs": [
        {
          "internalType": "uint256",
          "name": "tokenId",
          "type": "uint256"
        }
      ],
      "name": "getApproved",
      "outputs": [
        {
          "internalType": "address",
          "name": "",
          "type": "address"
        }
      ],
      "stateMutability": "view",
      "type": "function"
    },
    {
      "inputs": [],
      "name": "getTotalNFTsMintedSoFar",
      "outputs": [
        {
          "internalType": "uint256",
          "name": "",
          "type": "uint256"
        }
      ],
      "stateMutability": "view",
      "type": "function"
    },
    {
      "inputs": [
        {
          "internalType": "address",
          "name": "owner",
          "type": "address"
        },
        {
          "internalType": "address",
          "name": "operator",
          "type": "address"
        }
      ],
      "name": "isApprovedForAll",
      "outputs": [
        {
          "internalType": "bool",
          "name": "",
          "type": "bool"
        }
      ],
      "stateMutability": "view",
      "type": "function"
    },
    {
      "inputs": [],
      "name": "makeAnEpicNFT",
      "outputs": [],
      "stateMutability": "nonpayable",
      "type": "function"
    },
    {
      "inputs": [],
      "name": "name",
      "outputs": [
        {
          "internalType": "string",
          "name": "",
          "type": "string"
        }
      ],
      "stateMutability": "view",
      "type": "function"
    },
    {
      "inputs": [
        {
          "internalType": "uint256",
          "name": "tokenId",
          "type": "uint256"
        }
      ],
      "name": "ownerOf",
      "outputs": [
        {
          "internalType": "address",
          "name": "",
          "type": "address"
        }
      ],
      "stateMutability": "view",
      "type": "function"
    },
    {
      "inputs": [
        {
          "internalType": "uint256",
          "name": "tokenId",
          "type": "uint256"
        }
      ],
      "name": "pickRandomColour",
      "outputs": [
        {
          "internalType": "string",
          "name": "",
          "type": "string"
        }
      ],
      "stateMutability": "view",
      "type": "function"
    },
    {
      "inputs": [
        {
          "internalType": "uint256",
          "name": "tokenId",
          "type": "uint256"
        }
      ],
      "name": "pickRandomFirstWord",
      "outputs": [
        {
          "internalType": "string",
          "name": "",
          "type": "string"
        }
      ],
      "stateMutability": "view",
      "type": "function"
    },
    {
      "inputs": [
        {
          "internalType": "uint256",
          "name": "tokenId",
          "type": "uint256"
        }
      ],
      "name": "pickRandomSecondWord",
      "outputs": [
        {
          "internalType": "string",
          "name": "",
          "type": "string"
        }
      ],
      "stateMutability": "view",
      "type": "function"
    },
    {
      "inputs": [
        {
          "internalType": "uint256",
          "name": "tokenId",
          "type": "uint256"
        }
      ],
      "name": "pickRandomThirdWord",
      "outputs": [
        {
          "internalType": "string",
          "name": "",
          "type": "string"
        }
      ],
      "stateMutability": "view",
      "type": "function"
    },
    {
      "inputs": [
        {
          "internalType": "address",
          "name": "from",
          "type": "address"
        },
        {
          "internalType": "address",
          "name": "to",
          "type": "address"
        },
        {
          "internalType": "uint256",
          "name": "tokenId",
          "type": "uint256"
        }
      ],
      "name": "safeTransferFrom",
      "outputs": [],
      "stateMutability": "nonpayable",
      "type": "function"
    },
    {
      "inputs": [
        {
          "internalType": "address",
          "name": "from",
          "type": "address"
        },
        {
          "internalType": "address",
          "name": "to",
          "type": "address"
        },
        {
          "internalType": "uint256",
          "name": "tokenId",
          "type": "uint256"
        },
        {
          "internalType": "bytes",
          "name": "data",
          "type": "bytes"
        }
      ],
      "name": "safeTransferFrom",
      "outputs": [],
      "stateMutability": "nonpayable",
      "type": "function"
    },
    {
      "inputs": [
        {
          "internalType": "address",
          "name": "operator",
          "type": "address"
        },
        {
          "internalType": "bool",
          "name": "approved",
          "type": "bool"
        }
      ],
      "name": "setApprovalForAll",
      "outputs": [],
      "stateMutability": "nonpayable",
      "type": "function"
    },
    {
      "inputs": [
        {
          "internalType": "bytes4",
          "name": "interfaceId",
          "type": "bytes4"
        }
      ],
      "name": "supportsInterface",
      "outputs": [
        {
          "internalType": "bool",
          "name": "",
          "type": "bool"
        }
      ],
      "stateMutability": "view",
      "type": "function"
    },
    {
      "inputs": [],
      "name": "symbol",
      "outputs": [
        {
          "internalType": "string",
          "name": "",
          "type": "string"
        }
      ],
      "stateMutability": "view",
      "type": "function"
    },
    {
      "inputs": [
        {
          "internalType": "uint256",
          "name": "tokenId",
          "type": "uint256"
        }
      ],
      "name": "tokenURI",
      "outputs": [
        {
          "internalType": "string",
          "name": "",
          "type": "string"
        }
      ],
      "stateMutability": "view",
      "type": "function"
    },
    {
      "inputs": [
        {
          "internalType": "address",
          "name": "from",
          "type": "address"
        },
        {
          "internalType": "address",
          "name": "to",
          "type": "address"
        },
        {
          "internalType": "uint256",
          "name": "tokenId",
          "type": "uint256"
        }
      ],
      "name": "transferFrom",
      "outputs": [],
      "stateMutability": "nonpayable",
      "type": "function"
    }
  ],
  "bytecode": "0x608060405260405180610100016040528060d381526020016200448360d39139600890816200002f919062000f76565b506040518060800160405280605781526020016200455660579139600990816200005a919062000f76565b506040518061010001604052806040518060400160405280600981526020017f64656c6963696f7573000000000000000000000000000000000000000000000081525081526020016040518060400160405280600681526020017f736d656c6c79000000000000000000000000000000000000000000000000000081525081526020016040518060400160405280600781526020017f64617368696e670000000000000000000000000000000000000000000000000081525081526020016040518060400160405280600781526020017f6265727365726b0000000000000000000000000000000000000000000000000081525081526020016040518060400160405280600581526020017f6372617a7900000000000000000000000000000000000000000000000000000081525081526020016040518060400160405280600681526020017f737469636b79000000000000000000000000000000000000000000000000000081525081526020016040518060400160405280600781526020017f73717569726d790000000000000000000000000000000000000000000000000081525081526020016040518060400160405280600581526020017f736c696d79000000000000000000000000000000000000000000000000000000815250815250600a9060086200024f92919062000b43565b506040518061012001604052806040518060400160405280600381526020017f576574000000000000000000000000000000000000000000000000000000000081525081526020016040518060400160405280600d81526020017f44797366756e6374696f6e616c0000000000000000000000000000000000000081525081526020016040518060400160405280600681526020017f4c6974746c65000000000000000000000000000000000000000000000000000081525081526020016040518060400160405280600681526020017f4368696c6c79000000000000000000000000000000000000000000000000000081525081526020016040518060400160405280600581526020017f53696c6c7900000000000000000000000000000000000000000000000000000081525081526020016040518060400160405280600581526020017f53616c747900000000000000000000000000000000000000000000000000000081525081526020016040518060400160405280600481526020017f536f75720000000000000000000000000000000000000000000000000000000081525081526020016040518060400160405280600581526020017f537765657400000000000000000000000000000000000000000000000000000081525081526020016040518060400160405280600581526020017f5370696379000000000000000000000000000000000000000000000000000000815250815250600b9060096200047f92919062000ba3565b506040518061016001604052806040518060400160405280600781526020017f50656e6775696e0000000000000000000000000000000000000000000000000081525081526020016040518060400160405280600381526020017f436174000000000000000000000000000000000000000000000000000000000081525081526020016040518060400160405280600381526020017f446f67000000000000000000000000000000000000000000000000000000000081525081526020016040518060400160405280600481526020017f466973680000000000000000000000000000000000000000000000000000000081525081526020016040518060400160405280600481526020017f426972640000000000000000000000000000000000000000000000000000000081525081526020016040518060400160405280600881526020017f456c657068616e7400000000000000000000000000000000000000000000000081525081526020016040518060400160405280600781526020017f476972616666650000000000000000000000000000000000000000000000000081525081526020016040518060400160405280600481526020017f4c696f6e0000000000000000000000000000000000000000000000000000000081525081526020016040518060400160405280600581526020017f546967657200000000000000000000000000000000000000000000000000000081525081526020016040518060400160405280600481526020017f426561720000000000000000000000000000000000000000000000000000000081525081526020016040518060400160405280600881526020017f4a6f6e617468616e000000000000000000000000000000000000000000000000815250815250600c90600b6200072592919062000c03565b506040518061012001604052806040518060400160405280600581526020017f677265656e00000000000000000000000000000000000000000000000000000081525081526020016040518060400160405280600481526020017f6379616e0000000000000000000000000000000000000000000000000000000081525081526020016040518060400160405280600381526020017f726564000000000000000000000000000000000000000000000000000000000081525081526020016040518060400160405280600681526020017f79656c6c6f77000000000000000000000000000000000000000000000000000081525081526020016040518060400160405280600681526020017f707572706c65000000000000000000000000000000000000000000000000000081525081526020016040518060400160405280600681526020017f6f72616e6765000000000000000000000000000000000000000000000000000081525081526020016040518060400160405280600481526020017f70696e6b0000000000000000000000000000000000000000000000000000000081525081526020016040518060400160405280600581526020017f776869746500000000000000000000000000000000000000000000000000000081525081526020016040518060400160405280600581526020017f62726f776e000000000000000000000000000000000000000000000000000000815250815250600d9060096200095592919062000ba3565b503480156200096357600080fd5b506040518060400160405280600981526020017f5371756172654e465400000000000000000000000000000000000000000000008152506040518060400160405280600681526020017f53515541524500000000000000000000000000000000000000000000000000008152508160009081620009e1919062000f76565b508060019081620009f3919062000f76565b50505062000a3c6040518060400160405280601e81526020017f54686973206973206d79204e465420636f6e74726163742e2057686f6121000081525062000a4260201b60201c565b6200113f565b62000ae28160405160240162000a599190620010ec565b6040516020818303038152906040527f41304fac000000000000000000000000000000000000000000000000000000007bffffffffffffffffffffffffffffffffffffffffffffffffffffffff19166020820180517bffffffffffffffffffffffffffffffffffffffffffffffffffffffff838183161783525050505062000ae560201b60201c565b50565b62000b0b8162000b0662000b0e60201b62000ee31762000b2f60201b60201c565b60201c565b50565b60006a636f6e736f6c652e6c6f679050600080835160208501845afa505050565b62000c6360201b6200208f17819050919050565b82805482825590600052602060002090810192821562000b90579160200282015b8281111562000b8f57825182908162000b7e919062000f76565b509160200191906001019062000b64565b5b50905062000b9f919062000c6f565b5090565b82805482825590600052602060002090810192821562000bf0579160200282015b8281111562000bef57825182908162000bde919062000f76565b509160200191906001019062000bc4565b5b50905062000bff919062000c6f565b5090565b82805482825590600052602060002090810192821562000c50579160200282015b8281111562000c4f57825182908162000c3e919062000f76565b509160200191906001019062000c24565b5b50905062000c5f919062000c6f565b5090565b62000c6d62001110565b565b5b8082111562000c93576000818162000c89919062000c97565b5060010162000c70565b5090565b50805462000ca59062000d65565b6000825580601f1062000cb9575062000cda565b601f01602090049060005260206000209081019062000cd9919062000cdd565b5b50565b5b8082111562000cf857600081600090555060010162000cde565b5090565b600081519050919050565b7f4e487b7100000000000000000000000000000000000000000000000000000000600052604160045260246000fd5b7f4e487b7100000000000000000000000000000000000000000000000000000000600052602260045260246000fd5b6000600282049050600182168062000d7e57607f821691505b60208210810362000d945762000d9362000d36565b5b50919050565b60008190508160005260206000209050919050565b60006020601f8301049050919050565b600082821b905092915050565b60006008830262000dfe7fffffffffffffffffffffffffffffffffffffffffffffffffffffffffffffffff8262000dbf565b62000e0a868362000dbf565b95508019841693508086168417925050509392505050565b6000819050919050565b6000819050919050565b600062000e5762000e5162000e4b8462000e22565b62000e2c565b62000e22565b9050919050565b6000819050919050565b62000e738362000e36565b62000e8b62000e828262000e5e565b84845462000dcc565b825550505050565b600090565b62000ea262000e93565b62000eaf81848462000e68565b505050565b5b8181101562000ed75762000ecb60008262000e98565b60018101905062000eb5565b5050565b601f82111562000f265762000ef08162000d9a565b62000efb8462000daf565b8101602085101562000f0b578190505b62000f2362000f1a8562000daf565b83018262000eb4565b50505b505050565b600082821c905092915050565b600062000f4b6000198460080262000f2b565b1980831691505092915050565b600062000f66838362000f38565b9150826002028217905092915050565b62000f818262000cfc565b67ffffffffffffffff81111562000f9d5762000f9c62000d07565b5b62000fa9825462000d65565b62000fb682828562000edb565b600060209050601f83116001811462000fee576000841562000fd9578287015190505b62000fe5858262000f58565b86555062001055565b601f19841662000ffe8662000d9a565b60005b82811015620010285784890151825560018201915060208501945060208101905062001001565b8683101562001048578489015162001044601f89168262000f38565b8355505b6001600288020188555050505b505050505050565b600082825260208201905092915050565b60005b838110156200108e57808201518184015260208101905062001071565b60008484015250505050565b6000601f19601f8301169050919050565b6000620010b88262000cfc565b620010c481856200105d565b9350620010d68185602086016200106e565b620010e1816200109a565b840191505092915050565b60006020820190508181036000830152620011088184620010ab565b905092915050565b7f4e487b7100000000000000000000000000000000000000000000000000000000600052605160045260246000fd5b613334806200114f6000396000f3fe608060405234801561001057600080fd5b50600436106101215760003560e01c806370a08231116100ad578063c575757a11610071578063c575757a1461032c578063c87b56dd1461035c578063de9d132f1461038c578063e985e9c514610396578063eb9edb7d146103c657610121565b806370a082311461027657806395d89b41146102a6578063a22cb465146102c4578063b187301f146102e0578063b88d4fde1461031057610121565b8063095ea7b3116100f4578063095ea7b3146101c257806323b872dd146101de5780632de38d68146101fa57806342842e0e1461022a5780636352211e1461024657610121565b806301ffc9a714610126578063060475901461015657806306fdde0314610174578063081812fc14610192575b600080fd5b610140600480360381019061013b9190612105565b6103f6565b60405161014d919061214d565b60405180910390f35b61015e610457565b60405161016b9190612181565b60405180910390f35b61017c610461565b604051610189919061222c565b60405180910390f35b6101ac60048036038101906101a7919061227a565b6104f3565b6040516101b991906122e8565b60405180910390f35b6101dc60048036038101906101d7919061232f565b61050f565b005b6101f860048036038101906101f3919061236f565b610525565b005b610214600480360381019061020f919061227a565b610627565b604051610221919061222c565b60405180910390f35b610244600480360381019061023f919061236f565b61071f565b005b610260600480360381019061025b919061227a565b61073f565b60405161026d91906122e8565b60405180910390f35b610290600480360381019061028b91906123c2565b610751565b60405161029d9190612181565b60405180910390f35b6102ae61080b565b6040516102bb919061222c565b60405180910390f35b6102de60048036038101906102d9919061241b565b61089d565b005b6102fa60048036038101906102f5919061227a565b6108b3565b604051610307919061222c565b60405180910390f35b61032a60048036038101906103259190612590565b6109ab565b005b6103466004803603810190610341919061227a565b6109c8565b604051610353919061222c565b60405180910390f35b6103766004803603810190610371919061227a565b610ac0565b604051610383919061222c565b60405180910390f35b610394610bd3565b005b6103b060048036038101906103ab9190612613565b610d57565b6040516103bd919061214d565b60405180910390f35b6103e060048036038101906103db919061227a565b610deb565b6040516103ed919061222c565b60405180910390f35b6000634906490660e01b7bffffffffffffffffffffffffffffffffffffffffffffffffffffffff1916827bffffffffffffffffffffffffffffffffffffffffffffffffffffffff19161480610450575061044f82610f04565b5b9050919050565b6000600754905090565b60606000805461047090612682565b80601f016020809104026020016040519081016040528092919081815260200182805461049c90612682565b80156104e95780601f106104be576101008083540402835291602001916104e9565b820191906000526020600020905b8154815290600101906020018083116104cc57829003601f168201915b5050505050905090565b60006104fe82610fe6565b506105088261106e565b9050919050565b610521828261051c6110ab565b6110b3565b5050565b600073ffffffffffffffffffffffffffffffffffffffff168273ffffffffffffffffffffffffffffffffffffffff16036105975760006040517f64a0ae9200000000000000000000000000000000000000000000000000000000815260040161058e91906122e8565b60405180910390fd5b60006105ab83836105a66110ab565b6110c5565b90508373ffffffffffffffffffffffffffffffffffffffff168173ffffffffffffffffffffffffffffffffffffffff1614610621578382826040517f64283d7b000000000000000000000000000000000000000000000000000000008152600401610618939291906126b3565b60405180910390fd5b50505050565b6060600061065b610637846112df565b6040516020016106479190612772565b6040516020818303038152906040526113ad565b9050600a805490508161066e91906127c3565b9050600a8181548110610684576106836127f4565b5b90600052602060002001805461069990612682565b80601f01602080910402602001604051908101604052809291908181526020018280546106c590612682565b80156107125780601f106106e757610100808354040283529160200191610712565b820191906000526020600020905b8154815290600101906020018083116106f557829003601f168201915b5050505050915050919050565b61073a838383604051806020016040528060008152506109ab565b505050565b600061074a82610fe6565b9050919050565b60008073ffffffffffffffffffffffffffffffffffffffff168273ffffffffffffffffffffffffffffffffffffffff16036107c45760006040517f89c62b640000000000000000000000000000000000000000000000000000000081526004016107bb91906122e8565b60405180910390fd5b600360008373ffffffffffffffffffffffffffffffffffffffff1673ffffffffffffffffffffffffffffffffffffffff168152602001908152602001600020549050919050565b60606001805461081a90612682565b80601f016020809104026020016040519081016040528092919081815260200182805461084690612682565b80156108935780601f1061086857610100808354040283529160200191610893565b820191906000526020600020905b81548152906001019060200180831161087657829003601f168201915b5050505050905090565b6108af6108a86110ab565b83836113e0565b5050565b606060006108e76108c3846112df565b6040516020016108d3919061286f565b6040516020818303038152906040526113ad565b9050600b80549050816108fa91906127c3565b9050600b81815481106109105761090f6127f4565b5b90600052602060002001805461092590612682565b80601f016020809104026020016040519081016040528092919081815260200182805461095190612682565b801561099e5780601f106109735761010080835404028352916020019161099e565b820191906000526020600020905b81548152906001019060200180831161098157829003601f168201915b5050505050915050919050565b6109b6848484610525565b6109c28484848461154f565b50505050565b606060006109fc6109d8846112df565b6040516020016109e891906128dd565b6040516020818303038152906040526113ad565b9050600c8054905081610a0f91906127c3565b9050600c8181548110610a2557610a246127f4565b5b906000526020600020018054610a3a90612682565b80601f0160208091040260200160405190810160405280929190818152602001828054610a6690612682565b8015610ab35780601f10610a8857610100808354040283529160200191610ab3565b820191906000526020600020905b815481529060010190602001808311610a9657829003601f168201915b5050505050915050919050565b6060610acb82610fe6565b506000600660008481526020019081526020016000208054610aec90612682565b80601f0160208091040260200160405190810160405280929190818152602001828054610b1890612682565b8015610b655780601f10610b3a57610100808354040283529160200191610b65565b820191906000526020600020905b815481529060010190602001808311610b4857829003601f168201915b505050505090506000610b76611706565b90506000815103610b8b578192505050610bce565b600082511115610bc0578082604051602001610ba89291906128ff565b60405160208183030381529060405292505050610bce565b610bc98461171d565b925050505b919050565b600060075490506000610be582610deb565b90506000610bf283610627565b90506000610bff846108b3565b90506000610c0c856109c8565b90506000838383604051602001610c2593929190612923565b60405160208183030381529060405290506000600886600984604051602001610c519493929190612a38565b60405160208183030381529060405290506000610ca083610c718a6112df565b610c7a85611786565b604051602001610c8c93929190612c49565b604051602081830303815290604052611786565b9050600081604051602001610cb59190612cf2565b6040516020818303038152906040529050610cd0338a6118f8565b610cda8982611916565b610cfd60405180606001604052806025815260200161329a602591398a33611972565b600760008154610d0c90612d43565b919050819055507febb98688741ffa4c7589bf325de30cf7becb63de567842e1ccdb6cb949fdc82c338a604051610d44929190612d8b565b60405180910390a1505050505050505050565b6000600560008473ffffffffffffffffffffffffffffffffffffffff1673ffffffffffffffffffffffffffffffffffffffff16815260200190815260200160002060008373ffffffffffffffffffffffffffffffffffffffff1673ffffffffffffffffffffffffffffffffffffffff16815260200190815260200160002060009054906101000a900460ff16905092915050565b60606000610e1f610dfb846112df565b604051602001610e0b9190612e00565b6040516020818303038152906040526113ad565b9050600d8054905081610e3291906127c3565b9050600d8181548110610e4857610e476127f4565b5b906000526020600020018054610e5d90612682565b80601f0160208091040260200160405190810160405280929190818152602001828054610e8990612682565b8015610ed65780601f10610eab57610100808354040283529160200191610ed6565b820191906000526020600020905b815481529060010190602001808311610eb957829003601f168201915b5050505050915050919050565b60006a636f6e736f6c652e6c6f679050600080835160208501845afa505050565b60007f80ac58cd000000000000000000000000000000000000000000000000000000007bffffffffffffffffffffffffffffffffffffffffffffffffffffffff1916827bffffffffffffffffffffffffffffffffffffffffffffffffffffffff19161480610fcf57507f5b5e139f000000000000000000000000000000000000000000000000000000007bffffffffffffffffffffffffffffffffffffffffffffffffffffffff1916827bffffffffffffffffffffffffffffffffffffffffffffffffffffffff1916145b80610fdf5750610fde82611a11565b5b9050919050565b600080610ff283611a7b565b9050600073ffffffffffffffffffffffffffffffffffffffff168173ffffffffffffffffffffffffffffffffffffffff160361106557826040517f7e27328900000000000000000000000000000000000000000000000000000000815260040161105c9190612181565b60405180910390fd5b80915050919050565b60006004600083815260200190815260200160002060009054906101000a900473ffffffffffffffffffffffffffffffffffffffff169050919050565b600033905090565b6110c08383836001611ab8565b505050565b6000806110d184611a7b565b9050600073ffffffffffffffffffffffffffffffffffffffff168373ffffffffffffffffffffffffffffffffffffffff161461111357611112818486611c7d565b5b600073ffffffffffffffffffffffffffffffffffffffff168173ffffffffffffffffffffffffffffffffffffffff16146111a457611155600085600080611ab8565b6001600360008373ffffffffffffffffffffffffffffffffffffffff1673ffffffffffffffffffffffffffffffffffffffff168152602001908152602001600020600082825403925050819055505b600073ffffffffffffffffffffffffffffffffffffffff168573ffffffffffffffffffffffffffffffffffffffff1614611227576001600360008773ffffffffffffffffffffffffffffffffffffffff1673ffffffffffffffffffffffffffffffffffffffff168152602001908152602001600020600082825401925050819055505b846002600086815260200190815260200160002060006101000a81548173ffffffffffffffffffffffffffffffffffffffff021916908373ffffffffffffffffffffffffffffffffffffffff160217905550838573ffffffffffffffffffffffffffffffffffffffff168273ffffffffffffffffffffffffffffffffffffffff167fddf252ad1be2c89b69c2b068fc378daa952ba7f163c4a11628f55a4df523b3ef60405160405180910390a4809150509392505050565b6060600060016112ee84611d41565b01905060008167ffffffffffffffff81111561130d5761130c612465565b5b6040519080825280601f01601f19166020018201604052801561133f5781602001600182028036833780820191505090505b509050600082602001820190505b6001156113a2578080600190039150507f3031323334353637383961626364656600000000000000000000000000000000600a86061a8153600a858161139657611395612794565b5b0494506000850361134d575b819350505050919050565b6000816040516020016113c09190612e22565b6040516020818303038152906040528051906020012060001c9050919050565b600073ffffffffffffffffffffffffffffffffffffffff168273ffffffffffffffffffffffffffffffffffffffff160361145157816040517f5b08ba1800000000000000000000000000000000000000000000000000000000815260040161144891906122e8565b60405180910390fd5b80600560008573ffffffffffffffffffffffffffffffffffffffff1673ffffffffffffffffffffffffffffffffffffffff16815260200190815260200160002060008473ffffffffffffffffffffffffffffffffffffffff1673ffffffffffffffffffffffffffffffffffffffff16815260200190815260200160002060006101000a81548160ff0219169083151502179055508173ffffffffffffffffffffffffffffffffffffffff168373ffffffffffffffffffffffffffffffffffffffff167f17307eab39ab6107e8899845ad3d59bd9653f200f220920489ca2b5937696c3183604051611542919061214d565b60405180910390a3505050565b60008373ffffffffffffffffffffffffffffffffffffffff163b1115611700578273ffffffffffffffffffffffffffffffffffffffff1663150b7a026115936110ab565b8685856040518563ffffffff1660e01b81526004016115b59493929190612e8e565b6020604051808303816000875af19250505080156115f157506040513d601f19601f820116820180604052508101906115ee9190612eef565b60015b611675573d8060008114611621576040519150601f19603f3d011682016040523d82523d6000602084013e611626565b606091505b50600081510361166d57836040517f64a0ae9200000000000000000000000000000000000000000000000000000000815260040161166491906122e8565b60405180910390fd5b805181602001fd5b63150b7a0260e01b7bffffffffffffffffffffffffffffffffffffffffffffffffffffffff1916817bffffffffffffffffffffffffffffffffffffffffffffffffffffffff1916146116fe57836040517f64a0ae920000000000000000000000000000000000000000000000000000000081526004016116f591906122e8565b60405180910390fd5b505b50505050565b606060405180602001604052806000815250905090565b606061172882610fe6565b506000611733611706565b90506000815111611753576040518060200160405280600081525061177e565b8061175d846112df565b60405160200161176e9291906128ff565b6040516020818303038152906040525b915050919050565b606060008251036117a8576040518060200160405280600081525090506118f3565b60006040518060600160405280604081526020016132bf60409139905060006003600285516117d79190612f1c565b6117e19190612f50565b60046117ed9190612f81565b67ffffffffffffffff81111561180657611805612465565b5b6040519080825280601f01601f1916602001820160405280156118385781602001600182028036833780820191505090505b50905060018201602082018586518701602081018051600082525b828410156118ae576003840193508351603f8160121c168701518653600186019550603f81600c1c168701518653600186019550603f8160061c168701518653600186019550603f8116870151865360018601955050611853565b80825260038a5106600181146118cb57600281146118de576118e6565b603d6001870353603d60028703536118e6565b603d60018703535b5050505050505080925050505b919050565b611912828260405180602001604052806000815250611e94565b5050565b80600660008481526020019081526020016000209081611936919061315a565b507ff8e1a15aba9398e019f0b49df1a4fde98ee17ae345cb5f6b5e2c27f5033e8ce7826040516119669190612181565b60405180910390a15050565b611a0c83838360405160240161198a9392919061322c565b6040516020818303038152906040527f1c7ec448000000000000000000000000000000000000000000000000000000007bffffffffffffffffffffffffffffffffffffffffffffffffffffffff19166020820180517bffffffffffffffffffffffffffffffffffffffffffffffffffffffff8381831617835250505050611eb0565b505050565b60007f01ffc9a7000000000000000000000000000000000000000000000000000000007bffffffffffffffffffffffffffffffffffffffffffffffffffffffff1916827bffffffffffffffffffffffffffffffffffffffffffffffffffffffff1916149050919050565b60006002600083815260200190815260200160002060009054906101000a900473ffffffffffffffffffffffffffffffffffffffff169050919050565b8080611af15750600073ffffffffffffffffffffffffffffffffffffffff168273ffffffffffffffffffffffffffffffffffffffff1614155b15611c25576000611b0184610fe6565b9050600073ffffffffffffffffffffffffffffffffffffffff168373ffffffffffffffffffffffffffffffffffffffff1614158015611b6c57508273ffffffffffffffffffffffffffffffffffffffff168173ffffffffffffffffffffffffffffffffffffffff1614155b8015611b7f5750611b7d8184610d57565b155b15611bc157826040517fa9fbf51f000000000000000000000000000000000000000000000000000000008152600401611bb891906122e8565b60405180910390fd5b8115611c2357838573ffffffffffffffffffffffffffffffffffffffff168273ffffffffffffffffffffffffffffffffffffffff167f8c5be1e5ebec7d5bd14f71427d1e84f3dd0314c0f7b2291e5b200ac8c7c3b92560405160405180910390a45b505b836004600085815260200190815260200160002060006101000a81548173ffffffffffffffffffffffffffffffffffffffff021916908373ffffffffffffffffffffffffffffffffffffffff16021790555050505050565b611c88838383611eca565b611d3c57600073ffffffffffffffffffffffffffffffffffffffff168373ffffffffffffffffffffffffffffffffffffffff1603611cfd57806040517f7e273289000000000000000000000000000000000000000000000000000000008152600401611cf49190612181565b60405180910390fd5b81816040517f177e802f000000000000000000000000000000000000000000000000000000008152600401611d33929190612d8b565b60405180910390fd5b505050565b600080600090507a184f03e93ff9f4daa797ed6e38ed64bf6a1f0100000000000000008310611d9f577a184f03e93ff9f4daa797ed6e38ed64bf6a1f0100000000000000008381611d9557611d94612794565b5b0492506040810190505b6d04ee2d6d415b85acef81000000008310611ddc576d04ee2d6d415b85acef81000000008381611dd257611dd1612794565b5b0492506020810190505b662386f26fc100008310611e0b57662386f26fc100008381611e0157611e00612794565b5b0492506010810190505b6305f5e1008310611e34576305f5e1008381611e2a57611e29612794565b5b0492506008810190505b6127108310611e59576127108381611e4f57611e4e612794565b5b0492506004810190505b60648310611e7c5760648381611e7257611e71612794565b5b0492506002810190505b600a8310611e8b576001810190505b80915050919050565b611e9e8383611f8b565b611eab600084848461154f565b505050565b611ec781611ebf610ee3612084565b63ffffffff16565b50565b60008073ffffffffffffffffffffffffffffffffffffffff168373ffffffffffffffffffffffffffffffffffffffff1614158015611f8257508273ffffffffffffffffffffffffffffffffffffffff168473ffffffffffffffffffffffffffffffffffffffff161480611f435750611f428484610d57565b5b80611f8157508273ffffffffffffffffffffffffffffffffffffffff16611f698361106e565b73ffffffffffffffffffffffffffffffffffffffff16145b5b90509392505050565b600073ffffffffffffffffffffffffffffffffffffffff168273ffffffffffffffffffffffffffffffffffffffff1603611ffd5760006040517f64a0ae92000000000000000000000000000000000000000000000000000000008152600401611ff491906122e8565b60405180910390fd5b600061200b838360006110c5565b9050600073ffffffffffffffffffffffffffffffffffffffff168173ffffffffffffffffffffffffffffffffffffffff161461207f5760006040517f73c6ac6e00000000000000000000000000000000000000000000000000000000815260040161207691906122e8565b60405180910390fd5b505050565b61208f819050919050565b61209761326a565b565b6000604051905090565b600080fd5b600080fd5b60007fffffffff0000000000000000000000000000000000000000000000000000000082169050919050565b6120e2816120ad565b81146120ed57600080fd5b50565b6000813590506120ff816120d9565b92915050565b60006020828403121561211b5761211a6120a3565b5b6000612129848285016120f0565b91505092915050565b60008115159050919050565b61214781612132565b82525050565b6000602082019050612162600083018461213e565b92915050565b6000819050919050565b61217b81612168565b82525050565b60006020820190506121966000830184612172565b92915050565b600081519050919050565b600082825260208201905092915050565b60005b838110156121d65780820151818401526020810190506121bb565b60008484015250505050565b6000601f19601f8301169050919050565b60006121fe8261219c565b61220881856121a7565b93506122188185602086016121b8565b612221816121e2565b840191505092915050565b6000602082019050818103600083015261224681846121f3565b905092915050565b61225781612168565b811461226257600080fd5b50565b6000813590506122748161224e565b92915050565b6000602082840312156122905761228f6120a3565b5b600061229e84828501612265565b91505092915050565b600073ffffffffffffffffffffffffffffffffffffffff82169050919050565b60006122d2826122a7565b9050919050565b6122e2816122c7565b82525050565b60006020820190506122fd60008301846122d9565b92915050565b61230c816122c7565b811461231757600080fd5b50565b60008135905061232981612303565b92915050565b60008060408385031215612346576123456120a3565b5b60006123548582860161231a565b925050602061236585828601612265565b9150509250929050565b600080600060608486031215612388576123876120a3565b5b60006123968682870161231a565b93505060206123a78682870161231a565b92505060406123b886828701612265565b9150509250925092565b6000602082840312156123d8576123d76120a3565b5b60006123e68482850161231a565b91505092915050565b6123f881612132565b811461240357600080fd5b50565b600081359050612415816123ef565b92915050565b60008060408385031215612432576124316120a3565b5b60006124408582860161231a565b925050602061245185828601612406565b9150509250929050565b600080fd5b600080fd5b7f4e487b7100000000000000000000000000000000000000000000000000000000600052604160045260246000fd5b61249d826121e2565b810181811067ffffffffffffffff821117156124bc576124bb612465565b5b80604052505050565b60006124cf612099565b90506124db8282612494565b919050565b600067ffffffffffffffff8211156124fb576124fa612465565b5b612504826121e2565b9050602081019050919050565b82818337600083830152505050565b600061253361252e846124e0565b6124c5565b90508281526020810184848401111561254f5761254e612460565b5b61255a848285612511565b509392505050565b600082601f8301126125775761257661245b565b5b8135612587848260208601612520565b91505092915050565b600080600080608085870312156125aa576125a96120a3565b5b60006125b88782880161231a565b94505060206125c98782880161231a565b93505060406125da87828801612265565b925050606085013567ffffffffffffffff8111156125fb576125fa6120a8565b5b61260787828801612562565b91505092959194509250565b6000806040838503121561262a576126296120a3565b5b60006126388582860161231a565b92505060206126498582860161231a565b9150509250929050565b7f4e487b7100000000000000000000000000000000000000000000000000000000600052602260045260246000fd5b6000600282049050600182168061269a57607f821691505b6020821081036126ad576126ac612653565b5b50919050565b60006060820190506126c860008301866122d9565b6126d56020830185612172565b6126e260408301846122d9565b949350505050565b600081905092915050565b7f46495253545f574f524400000000000000000000000000000000000000000000600082015250565b600061272b600a836126ea565b9150612736826126f5565b600a82019050919050565b600061274c8261219c565b61275681856126ea565b93506127668185602086016121b8565b80840191505092915050565b600061277d8261271e565b91506127898284612741565b915081905092915050565b7f4e487b7100000000000000000000000000000000000000000000000000000000600052601260045260246000fd5b60006127ce82612168565b91506127d983612168565b9250826127e9576127e8612794565b5b828206905092915050565b7f4e487b7100000000000000000000000000000000000000000000000000000000600052603260045260246000fd5b7f5345434f4e445f574f5244000000000000000000000000000000000000000000600082015250565b6000612859600b836126ea565b915061286482612823565b600b82019050919050565b600061287a8261284c565b91506128868284612741565b915081905092915050565b7f54484952445f574f524400000000000000000000000000000000000000000000600082015250565b60006128c7600a836126ea565b91506128d282612891565b600a82019050919050565b60006128e8826128ba565b91506128f48284612741565b915081905092915050565b600061290b8285612741565b91506129178284612741565b91508190509392505050565b600061292f8286612741565b915061293b8285612741565b91506129478284612741565b9150819050949350505050565b60008190508160005260206000209050919050565b6000815461297681612682565b61298081866126ea565b9450600182166000811461299b57600181146129b0576129e3565b60ff19831686528115158202860193506129e3565b6129b985612954565b60005b838110156129db578154818901526001820191506020810190506129bc565b838801955050505b50505092915050565b7f3c2f746578743e3c2f7376673e00000000000000000000000000000000000000600082015250565b6000612a22600d836126ea565b9150612a2d826129ec565b600d82019050919050565b6000612a448287612969565b9150612a508286612741565b9150612a5c8285612969565b9150612a688284612741565b9150612a7382612a15565b915081905095945050505050565b7f7b226e616d65223a202200000000000000000000000000000000000000000000600082015250565b6000612ab7600a836126ea565b9150612ac282612a81565b600a82019050919050565b7f222c20226465736372697074696f6e223a20224120686967686c79206163636c60008201527f61696d656420636f6c6c656374696f6e206f6620737175617265732e222c202260208201527f696d616765223a2022646174613a696d6167652f7376672b786d6c3b6261736560408201527f36342c0000000000000000000000000000000000000000000000000000000000606082015250565b6000612b756063836126ea565b9150612b8082612acd565b606382019050919050565b7f222c2022696d616765223a2022646174613a696d6167652f7376672b786d6c3b60008201527f6261736536342c00000000000000000000000000000000000000000000000000602082015250565b6000612be76027836126ea565b9150612bf282612b8b565b602782019050919050565b7f227d000000000000000000000000000000000000000000000000000000000000600082015250565b6000612c336002836126ea565b9150612c3e82612bfd565b600282019050919050565b6000612c5482612aaa565b9150612c608286612741565b9150612c6b82612b68565b9150612c778285612741565b9150612c8282612bda565b9150612c8e8284612741565b9150612c9982612c26565b9150819050949350505050565b7f646174613a6170706c69636174696f6e2f6a736f6e3b6261736536342c000000600082015250565b6000612cdc601d836126ea565b9150612ce782612ca6565b601d82019050919050565b6000612cfd82612ccf565b9150612d098284612741565b915081905092915050565b7f4e487b7100000000000000000000000000000000000000000000000000000000600052601160045260246000fd5b6000612d4e82612168565b91507fffffffffffffffffffffffffffffffffffffffffffffffffffffffffffffffff8203612d8057612d7f612d14565b5b600182019050919050565b6000604082019050612da060008301856122d9565b612dad6020830184612172565b9392505050565b7f434f4c4f55520000000000000000000000000000000000000000000000000000600082015250565b6000612dea6006836126ea565b9150612df582612db4565b600682019050919050565b6000612e0b82612ddd565b9150612e178284612741565b915081905092915050565b6000612e2e8284612741565b915081905092915050565b600081519050919050565b600082825260208201905092915050565b6000612e6082612e39565b612e6a8185612e44565b9350612e7a8185602086016121b8565b612e83816121e2565b840191505092915050565b6000608082019050612ea360008301876122d9565b612eb060208301866122d9565b612ebd6040830185612172565b8181036060830152612ecf8184612e55565b905095945050505050565b600081519050612ee9816120d9565b92915050565b600060208284031215612f0557612f046120a3565b5b6000612f1384828501612eda565b91505092915050565b6000612f2782612168565b9150612f3283612168565b9250828201905080821115612f4a57612f49612d14565b5b92915050565b6000612f5b82612168565b9150612f6683612168565b925082612f7657612f75612794565b5b828204905092915050565b6000612f8c82612168565b9150612f9783612168565b9250828202612fa581612168565b91508282048414831517612fbc57612fbb612d14565b5b5092915050565b60006020601f8301049050919050565b600082821b905092915050565b6000600883026130107fffffffffffffffffffffffffffffffffffffffffffffffffffffffffffffffff82612fd3565b61301a8683612fd3565b95508019841693508086168417925050509392505050565b6000819050919050565b600061305761305261304d84612168565b613032565b612168565b9050919050565b6000819050919050565b6130718361303c565b61308561307d8261305e565b848454612fe0565b825550505050565b600090565b61309a61308d565b6130a5818484613068565b505050565b5b818110156130c9576130be600082613092565b6001810190506130ab565b5050565b601f82111561310e576130df81612954565b6130e884612fc3565b810160208510156130f7578190505b61310b61310385612fc3565b8301826130aa565b50505b505050565b600082821c905092915050565b600061313160001984600802613113565b1980831691505092915050565b600061314a8383613120565b9150826002028217905092915050565b6131638261219c565b67ffffffffffffffff81111561317c5761317b612465565b5b6131868254612682565b6131918282856130cd565b600060209050601f8311600181146131c457600084156131b2578287015190505b6131bc858261313e565b865550613224565b601f1984166131d286612954565b60005b828110156131fa578489015182556001820191506020850194506020810190506131d5565b868310156132175784890151613213601f891682613120565b8355505b6001600288020188555050505b505050505050565b6000606082019050818103600083015261324681866121f3565b90506132556020830185612172565b61326260408301846122d9565b949350505050565b7f4e487b7100000000000000000000000000000000000000000000000000000000600052605160045260246000fdfe416e204e465420772f20494420257320686173206265656e206d696e74656420746f2025734142434445464748494a4b4c4d4e4f505152535455565758595a6162636465666768696a6b6c6d6e6f707172737475767778797a303132333435363738392b2fa2646970667358221220167ef22ab70f4262d16a221a86119e1f64049fd17124ef06e2e94cca000ee81f64736f6c634300081800333c73766720786d6c6e733d27687474703a2f2f7777772e77332e6f72672f323030302f73766727207072657365727665417370656374526174696f3d27784d696e594d696e206d656574272076696577426f783d273020302033353020333530273e3c7374796c653e2e62617365207b2066696c6c3a20626c61636b3b20666f6e742d66616d696c793a2073657269663b20666f6e742d73697a653a20323470783b207d3c2f7374796c653e3c726563742077696474683d273130302527206865696768743d2731303025272066696c6c3d2727202f3e3c7465787420783d273530252720793d273530252720636c6173733d27626173652720646f6d696e616e742d626173656c696e653d276d6964646c652720746578742d616e63686f723d276d6964646c65273e",
  "linkReferences": {},
  "deployedLinkReferences": {}
}