{
  "_format": "hh-sol-artifact-1",
  "contractName": "MyEpicNFT",
  "sourceName": "contracts/MyEpicNFT.sol",
  "abi": [
    {
      "inputs": [],
      "stateMutability": "nonpayable",
      "type": "constructor"
    },
    {
      "inputs": [
        {
          "internalType": "address",
          "name": "sender",
          "type": "address"
        },
        {
          "internalType": "uint256",
          "name": "tokenId",
          "type": "uint256"
        },
        {
          "internalType": "address",
          "name": "owner",
          "type": "address"
        }
      ],
      "name": "ERC721IncorrectOwner",
      "type": "error"
    },
    {
      "inputs": [
        {
          "internalType": "address",
          "name": "operator",
          "type": "address"
        },
        {
          "internalType": "uint256",
          "name": "tokenId",
          "type": "uint256"
        }
      ],
      "name": "ERC721InsufficientApproval",
      "type": "error"
    },
    {
      "inputs": [
        {
          "internalType": "address",
          "name": "approver",
          "type": "address"
        }
      ],
      "name": "ERC721InvalidApprover",
      "type": "error"
    },
    {
      "inputs": [
        {
          "internalType": "address",
          "name": "operator",
          "type": "address"
        }
      ],
      "name": "ERC721InvalidOperator",
      "type": "error"
    },
    {
      "inputs": [
        {
          "internalType": "address",
          "name": "owner",
          "type": "address"
        }
      ],
      "name": "ERC721InvalidOwner",
      "type": "error"
    },
    {
      "inputs": [
        {
          "internalType": "address",
          "name": "receiver",
          "type": "address"
        }
      ],
      "name": "ERC721InvalidReceiver",
      "type": "error"
    },
    {
      "inputs": [
        {
          "internalType": "address",
          "name": "sender",
          "type": "address"
        }
      ],
      "name": "ERC721InvalidSender",
      "type": "error"
    },
    {
      "inputs": [
        {
          "internalType": "uint256",
          "name": "tokenId",
          "type": "uint256"
        }
      ],
      "name": "ERC721NonexistentToken",
      "type": "error"
    },
    {
      "anonymous": false,
      "inputs": [
        {
          "indexed": true,
          "internalType": "address",
          "name": "owner",
          "type": "address"
        },
        {
          "indexed": true,
          "internalType": "address",
          "name": "approved",
          "type": "address"
        },
        {
          "indexed": true,
          "internalType": "uint256",
          "name": "tokenId",
          "type": "uint256"
        }
      ],
      "name": "Approval",
      "type": "event"
    },
    {
      "anonymous": false,
      "inputs": [
        {
          "indexed": true,
          "internalType": "address",
          "name": "owner",
          "type": "address"
        },
        {
          "indexed": true,
          "internalType": "address",
          "name": "operator",
          "type": "address"
        },
        {
          "indexed": false,
          "internalType": "bool",
          "name": "approved",
          "type": "bool"
        }
      ],
      "name": "ApprovalForAll",
      "type": "event"
    },
    {
      "anonymous": false,
      "inputs": [
        {
          "indexed": false,
          "internalType": "uint256",
          "name": "_fromTokenId",
          "type": "uint256"
        },
        {
          "indexed": false,
          "internalType": "uint256",
          "name": "_toTokenId",
          "type": "uint256"
        }
      ],
      "name": "BatchMetadataUpdate",
      "type": "event"
    },
    {
      "anonymous": false,
      "inputs": [
        {
          "indexed": false,
          "internalType": "uint256",
          "name": "_tokenId",
          "type": "uint256"
        }
      ],
      "name": "MetadataUpdate",
      "type": "event"
    },
    {
      "anonymous": false,
      "inputs": [
        {
          "indexed": false,
          "internalType": "address",
          "name": "sender",
          "type": "address"
        },
        {
          "indexed": false,
          "internalType": "uint256",
          "name": "tokenId",
          "type": "uint256"
        }
      ],
      "name": "NewEpicNFTMinted",
      "type": "event"
    },
    {
      "anonymous": false,
      "inputs": [
        {
          "indexed": true,
          "internalType": "address",
          "name": "from",
          "type": "address"
        },
        {
          "indexed": true,
          "internalType": "address",
          "name": "to",
          "type": "address"
        },
        {
          "indexed": true,
          "internalType": "uint256",
          "name": "tokenId",
          "type": "uint256"
        }
      ],
      "name": "Transfer",
      "type": "event"
    },
    {
      "inputs": [
        {
          "internalType": "address",
          "name": "to",
          "type": "address"
        },
        {
          "internalType": "uint256",
          "name": "tokenId",
          "type": "uint256"
        }
      ],
      "name": "approve",
      "outputs": [],
      "stateMutability": "nonpayable",
      "type": "function"
    },
    {
      "inputs": [
        {
          "internalType": "address",
          "name": "owner",
          "type": "address"
        }
      ],
      "name": "balanceOf",
      "outputs": [
        {
          "internalType": "uint256",
          "name": "",
          "type": "uint256"
        }
      ],
      "stateMutability": "view",
      "type": "function"
    },
    {
      "inputs": [
        {
          "internalType": "uint256",
          "name": "tokenId",
          "type": "uint256"
        }
      ],
      "name": "getApproved",
      "outputs": [
        {
          "internalType": "address",
          "name": "",
          "type": "address"
        }
      ],
      "stateMutability": "view",
      "type": "function"
    },
    {
      "inputs": [],
      "name": "getTotalNFTsMintedSoFar",
      "outputs": [
        {
          "internalType": "uint256",
          "name": "",
          "type": "uint256"
        }
      ],
      "stateMutability": "view",
      "type": "function"
    },
    {
      "inputs": [
        {
          "internalType": "address",
          "name": "owner",
          "type": "address"
        },
        {
          "internalType": "address",
          "name": "operator",
          "type": "address"
        }
      ],
      "name": "isApprovedForAll",
      "outputs": [
        {
          "internalType": "bool",
          "name": "",
          "type": "bool"
        }
      ],
      "stateMutability": "view",
      "type": "function"
    },
    {
      "inputs": [],
      "name": "makeAnEpicNFT",
      "outputs": [],
      "stateMutability": "nonpayable",
      "type": "function"
    },
    {
      "inputs": [],
      "name": "name",
      "outputs": [
        {
          "internalType": "string",
          "name": "",
          "type": "string"
        }
      ],
      "stateMutability": "view",
      "type": "function"
    },
    {
      "inputs": [
        {
          "internalType": "uint256",
          "name": "tokenId",
          "type": "uint256"
        }
      ],
      "name": "ownerOf",
      "outputs": [
        {
          "internalType": "address",
          "name": "",
          "type": "address"
        }
      ],
      "stateMutability": "view",
      "type": "function"
    },
    {
      "inputs": [
        {
          "internalType": "uint256",
          "name": "tokenId",
          "type": "uint256"
        }
      ],
      "name": "pickRandomColour",
      "outputs": [
        {
          "internalType": "string",
          "name": "",
          "type": "string"
        }
      ],
      "stateMutability": "view",
      "type": "function"
    },
    {
      "inputs": [
        {
          "internalType": "uint256",
          "name": "tokenId",
          "type": "uint256"
        }
      ],
      "name": "pickRandomFirstWord",
      "outputs": [
        {
          "internalType": "string",
          "name": "",
          "type": "string"
        }
      ],
      "stateMutability": "view",
      "type": "function"
    },
    {
      "inputs": [
        {
          "internalType": "uint256",
          "name": "tokenId",
          "type": "uint256"
        }
      ],
      "name": "pickRandomSecondWord",
      "outputs": [
        {
          "internalType": "string",
          "name": "",
          "type": "string"
        }
      ],
      "stateMutability": "view",
      "type": "function"
    },
    {
      "inputs": [
        {
          "internalType": "uint256",
          "name": "tokenId",
          "type": "uint256"
        }
      ],
      "name": "pickRandomThirdWord",
      "outputs": [
        {
          "internalType": "string",
          "name": "",
          "type": "string"
        }
      ],
      "stateMutability": "view",
      "type": "function"
    },
    {
      "inputs": [
        {
          "internalType": "address",
          "name": "from",
          "type": "address"
        },
        {
          "internalType": "address",
          "name": "to",
          "type": "address"
        },
        {
          "internalType": "uint256",
          "name": "tokenId",
          "type": "uint256"
        }
      ],
      "name": "safeTransferFrom",
      "outputs": [],
      "stateMutability": "nonpayable",
      "type": "function"
    },
    {
      "inputs": [
        {
          "internalType": "address",
          "name": "from",
          "type": "address"
        },
        {
          "internalType": "address",
          "name": "to",
          "type": "address"
        },
        {
          "internalType": "uint256",
          "name": "tokenId",
          "type": "uint256"
        },
        {
          "internalType": "bytes",
          "name": "data",
          "type": "bytes"
        }
      ],
      "name": "safeTransferFrom",
      "outputs": [],
      "stateMutability": "nonpayable",
      "type": "function"
    },
    {
      "inputs": [
        {
          "internalType": "address",
          "name": "operator",
          "type": "address"
        },
        {
          "internalType": "bool",
          "name": "approved",
          "type": "bool"
        }
      ],
      "name": "setApprovalForAll",
      "outputs": [],
      "stateMutability": "nonpayable",
      "type": "function"
    },
    {
      "inputs": [
        {
          "internalType": "bytes4",
          "name": "interfaceId",
          "type": "bytes4"
        }
      ],
      "name": "supportsInterface",
      "outputs": [
        {
          "internalType": "bool",
          "name": "",
          "type": "bool"
        }
      ],
      "stateMutability": "view",
      "type": "function"
    },
    {
      "inputs": [],
      "name": "symbol",
      "outputs": [
        {
          "internalType": "string",
          "name": "",
          "type": "string"
        }
      ],
      "stateMutability": "view",
      "type": "function"
    },
    {
      "inputs": [
        {
          "internalType": "uint256",
          "name": "tokenId",
          "type": "uint256"
        }
      ],
      "name": "tokenURI",
      "outputs": [
        {
          "internalType": "string",
          "name": "",
          "type": "string"
        }
      ],
      "stateMutability": "view",
      "type": "function"
    },
    {
      "inputs": [
        {
          "internalType": "address",
          "name": "from",
          "type": "address"
        },
        {
          "internalType": "address",
          "name": "to",
          "type": "address"
        },
        {
          "internalType": "uint256",
          "name": "tokenId",
          "type": "uint256"
        }
      ],
      "name": "transferFrom",
      "outputs": [],
      "stateMutability": "nonpayable",
      "type": "function"
    }
  ],
  "bytecode": "0x608060405260405180610100016040528060d381526020016200455a60d39139600890816200002f919062000f76565b506040518060800160405280605781526020016200462d60579139600990816200005a919062000f76565b506040518061010001604052806040518060400160405280600981526020017f64656c6963696f7573000000000000000000000000000000000000000000000081525081526020016040518060400160405280600681526020017f736d656c6c79000000000000000000000000000000000000000000000000000081525081526020016040518060400160405280600781526020017f64617368696e670000000000000000000000000000000000000000000000000081525081526020016040518060400160405280600781526020017f6265727365726b0000000000000000000000000000000000000000000000000081525081526020016040518060400160405280600581526020017f6372617a7900000000000000000000000000000000000000000000000000000081525081526020016040518060400160405280600681526020017f737469636b79000000000000000000000000000000000000000000000000000081525081526020016040518060400160405280600781526020017f73717569726d790000000000000000000000000000000000000000000000000081525081526020016040518060400160405280600581526020017f736c696d79000000000000000000000000000000000000000000000000000000815250815250600a9060086200024f92919062000b43565b506040518061012001604052806040518060400160405280600381526020017f776574000000000000000000000000000000000000000000000000000000000081525081526020016040518060400160405280600d81526020017f64797366756e6374696f6e616c0000000000000000000000000000000000000081525081526020016040518060400160405280600681526020017f6c6974746c65000000000000000000000000000000000000000000000000000081525081526020016040518060400160405280600681526020017f6368696c6c79000000000000000000000000000000000000000000000000000081525081526020016040518060400160405280600581526020017f73696c6c7900000000000000000000000000000000000000000000000000000081525081526020016040518060400160405280600581526020017f73616c747900000000000000000000000000000000000000000000000000000081525081526020016040518060400160405280600481526020017f736f75720000000000000000000000000000000000000000000000000000000081525081526020016040518060400160405280600581526020017f737765657400000000000000000000000000000000000000000000000000000081525081526020016040518060400160405280600581526020017f7370696379000000000000000000000000000000000000000000000000000000815250815250600b9060096200047f92919062000ba3565b506040518061016001604052806040518060400160405280600781526020017f70656e6775696e0000000000000000000000000000000000000000000000000081525081526020016040518060400160405280600381526020017f636174000000000000000000000000000000000000000000000000000000000081525081526020016040518060400160405280600381526020017f646f67000000000000000000000000000000000000000000000000000000000081525081526020016040518060400160405280600481526020017f666973680000000000000000000000000000000000000000000000000000000081525081526020016040518060400160405280600481526020017f626972640000000000000000000000000000000000000000000000000000000081525081526020016040518060400160405280600881526020017f656c657068616e7400000000000000000000000000000000000000000000000081525081526020016040518060400160405280600781526020017f676972616666650000000000000000000000000000000000000000000000000081525081526020016040518060400160405280600481526020017f6c696f6e0000000000000000000000000000000000000000000000000000000081525081526020016040518060400160405280600581526020017f746967657200000000000000000000000000000000000000000000000000000081525081526020016040518060400160405280600481526020017f626561720000000000000000000000000000000000000000000000000000000081525081526020016040518060400160405280600881526020017f6a6f6e617468616e000000000000000000000000000000000000000000000000815250815250600c90600b6200072592919062000c03565b506040518061012001604052806040518060400160405280600581526020017f677265656e00000000000000000000000000000000000000000000000000000081525081526020016040518060400160405280600481526020017f6379616e0000000000000000000000000000000000000000000000000000000081525081526020016040518060400160405280600381526020017f726564000000000000000000000000000000000000000000000000000000000081525081526020016040518060400160405280600681526020017f79656c6c6f77000000000000000000000000000000000000000000000000000081525081526020016040518060400160405280600681526020017f707572706c65000000000000000000000000000000000000000000000000000081525081526020016040518060400160405280600681526020017f6f72616e6765000000000000000000000000000000000000000000000000000081525081526020016040518060400160405280600481526020017f70696e6b0000000000000000000000000000000000000000000000000000000081525081526020016040518060400160405280600581526020017f776869746500000000000000000000000000000000000000000000000000000081525081526020016040518060400160405280600581526020017f62726f776e000000000000000000000000000000000000000000000000000000815250815250600d9060096200095592919062000ba3565b503480156200096357600080fd5b506040518060400160405280600981526020017f5371756172654e465400000000000000000000000000000000000000000000008152506040518060400160405280600681526020017f53515541524500000000000000000000000000000000000000000000000000008152508160009081620009e1919062000f76565b508060019081620009f3919062000f76565b50505062000a3c6040518060400160405280601e81526020017f54686973206973206d79204e465420636f6e74726163742e2057686f6121000081525062000a4260201b60201c565b6200113f565b62000ae28160405160240162000a599190620010ec565b6040516020818303038152906040527f41304fac000000000000000000000000000000000000000000000000000000007bffffffffffffffffffffffffffffffffffffffffffffffffffffffff19166020820180517bffffffffffffffffffffffffffffffffffffffffffffffffffffffff838183161783525050505062000ae560201b60201c565b50565b62000b0b8162000b0662000b0e60201b62000f281762000b2f60201b60201c565b60201c565b50565b60006a636f6e736f6c652e6c6f679050600080835160208501845afa505050565b62000c6360201b620020d417819050919050565b82805482825590600052602060002090810192821562000b90579160200282015b8281111562000b8f57825182908162000b7e919062000f76565b509160200191906001019062000b64565b5b50905062000b9f919062000c6f565b5090565b82805482825590600052602060002090810192821562000bf0579160200282015b8281111562000bef57825182908162000bde919062000f76565b509160200191906001019062000bc4565b5b50905062000bff919062000c6f565b5090565b82805482825590600052602060002090810192821562000c50579160200282015b8281111562000c4f57825182908162000c3e919062000f76565b509160200191906001019062000c24565b5b50905062000c5f919062000c6f565b5090565b62000c6d62001110565b565b5b8082111562000c93576000818162000c89919062000c97565b5060010162000c70565b5090565b50805462000ca59062000d65565b6000825580601f1062000cb9575062000cda565b601f01602090049060005260206000209081019062000cd9919062000cdd565b5b50565b5b8082111562000cf857600081600090555060010162000cde565b5090565b600081519050919050565b7f4e487b7100000000000000000000000000000000000000000000000000000000600052604160045260246000fd5b7f4e487b7100000000000000000000000000000000000000000000000000000000600052602260045260246000fd5b6000600282049050600182168062000d7e57607f821691505b60208210810362000d945762000d9362000d36565b5b50919050565b60008190508160005260206000209050919050565b60006020601f8301049050919050565b600082821b905092915050565b60006008830262000dfe7fffffffffffffffffffffffffffffffffffffffffffffffffffffffffffffffff8262000dbf565b62000e0a868362000dbf565b95508019841693508086168417925050509392505050565b6000819050919050565b6000819050919050565b600062000e5762000e5162000e4b8462000e22565b62000e2c565b62000e22565b9050919050565b6000819050919050565b62000e738362000e36565b62000e8b62000e828262000e5e565b84845462000dcc565b825550505050565b600090565b62000ea262000e93565b62000eaf81848462000e68565b505050565b5b8181101562000ed75762000ecb60008262000e98565b60018101905062000eb5565b5050565b601f82111562000f265762000ef08162000d9a565b62000efb8462000daf565b8101602085101562000f0b578190505b62000f2362000f1a8562000daf565b83018262000eb4565b50505b505050565b600082821c905092915050565b600062000f4b6000198460080262000f2b565b1980831691505092915050565b600062000f66838362000f38565b9150826002028217905092915050565b62000f818262000cfc565b67ffffffffffffffff81111562000f9d5762000f9c62000d07565b5b62000fa9825462000d65565b62000fb682828562000edb565b600060209050601f83116001811462000fee576000841562000fd9578287015190505b62000fe5858262000f58565b86555062001055565b601f19841662000ffe8662000d9a565b60005b82811015620010285784890151825560018201915060208501945060208101905062001001565b8683101562001048578489015162001044601f89168262000f38565b8355505b6001600288020188555050505b505050505050565b600082825260208201905092915050565b60005b838110156200108e57808201518184015260208101905062001071565b60008484015250505050565b6000601f19601f8301169050919050565b6000620010b88262000cfc565b620010c481856200105d565b9350620010d68185602086016200106e565b620010e1816200109a565b840191505092915050565b60006020820190508181036000830152620011088184620010ab565b905092915050565b7f4e487b7100000000000000000000000000000000000000000000000000000000600052605160045260246000fd5b61340b806200114f6000396000f3fe608060405234801561001057600080fd5b50600436106101215760003560e01c806370a08231116100ad578063c575757a11610071578063c575757a1461032c578063c87b56dd1461035c578063de9d132f1461038c578063e985e9c514610396578063eb9edb7d146103c657610121565b806370a082311461027657806395d89b41146102a6578063a22cb465146102c4578063b187301f146102e0578063b88d4fde1461031057610121565b8063095ea7b3116100f4578063095ea7b3146101c257806323b872dd146101de5780632de38d68146101fa57806342842e0e1461022a5780636352211e1461024657610121565b806301ffc9a714610126578063060475901461015657806306fdde0314610174578063081812fc14610192575b600080fd5b610140600480360381019061013b919061214a565b6103f6565b60405161014d9190612192565b60405180910390f35b61015e610457565b60405161016b91906121c6565b60405180910390f35b61017c610461565b6040516101899190612271565b60405180910390f35b6101ac60048036038101906101a791906122bf565b6104f3565b6040516101b9919061232d565b60405180910390f35b6101dc60048036038101906101d79190612374565b61050f565b005b6101f860048036038101906101f391906123b4565b610525565b005b610214600480360381019061020f91906122bf565b610627565b6040516102219190612271565b60405180910390f35b610244600480360381019061023f91906123b4565b61071f565b005b610260600480360381019061025b91906122bf565b61073f565b60405161026d919061232d565b60405180910390f35b610290600480360381019061028b9190612407565b610751565b60405161029d91906121c6565b60405180910390f35b6102ae61080b565b6040516102bb9190612271565b60405180910390f35b6102de60048036038101906102d99190612460565b61089d565b005b6102fa60048036038101906102f591906122bf565b6108b3565b6040516103079190612271565b60405180910390f35b61032a600480360381019061032591906125d5565b6109ab565b005b610346600480360381019061034191906122bf565b6109c8565b6040516103539190612271565b60405180910390f35b610376600480360381019061037191906122bf565b610ac0565b6040516103839190612271565b60405180910390f35b610394610bd3565b005b6103b060048036038101906103ab9190612658565b610d9c565b6040516103bd9190612192565b60405180910390f35b6103e060048036038101906103db91906122bf565b610e30565b6040516103ed9190612271565b60405180910390f35b6000634906490660e01b7bffffffffffffffffffffffffffffffffffffffffffffffffffffffff1916827bffffffffffffffffffffffffffffffffffffffffffffffffffffffff19161480610450575061044f82610f49565b5b9050919050565b6000600754905090565b606060008054610470906126c7565b80601f016020809104026020016040519081016040528092919081815260200182805461049c906126c7565b80156104e95780601f106104be576101008083540402835291602001916104e9565b820191906000526020600020905b8154815290600101906020018083116104cc57829003601f168201915b5050505050905090565b60006104fe8261102b565b50610508826110b3565b9050919050565b610521828261051c6110f0565b6110f8565b5050565b600073ffffffffffffffffffffffffffffffffffffffff168273ffffffffffffffffffffffffffffffffffffffff16036105975760006040517f64a0ae9200000000000000000000000000000000000000000000000000000000815260040161058e919061232d565b60405180910390fd5b60006105ab83836105a66110f0565b61110a565b90508373ffffffffffffffffffffffffffffffffffffffff168173ffffffffffffffffffffffffffffffffffffffff1614610621578382826040517f64283d7b000000000000000000000000000000000000000000000000000000008152600401610618939291906126f8565b60405180910390fd5b50505050565b6060600061065b61063784611324565b60405160200161064791906127b7565b6040516020818303038152906040526113f2565b9050600a805490508161066e9190612808565b9050600a818154811061068457610683612839565b5b906000526020600020018054610699906126c7565b80601f01602080910402602001604051908101604052809291908181526020018280546106c5906126c7565b80156107125780601f106106e757610100808354040283529160200191610712565b820191906000526020600020905b8154815290600101906020018083116106f557829003601f168201915b5050505050915050919050565b61073a838383604051806020016040528060008152506109ab565b505050565b600061074a8261102b565b9050919050565b60008073ffffffffffffffffffffffffffffffffffffffff168273ffffffffffffffffffffffffffffffffffffffff16036107c45760006040517f89c62b640000000000000000000000000000000000000000000000000000000081526004016107bb919061232d565b60405180910390fd5b600360008373ffffffffffffffffffffffffffffffffffffffff1673ffffffffffffffffffffffffffffffffffffffff168152602001908152602001600020549050919050565b60606001805461081a906126c7565b80601f0160208091040260200160405190810160405280929190818152602001828054610846906126c7565b80156108935780601f1061086857610100808354040283529160200191610893565b820191906000526020600020905b81548152906001019060200180831161087657829003601f168201915b5050505050905090565b6108af6108a86110f0565b8383611425565b5050565b606060006108e76108c384611324565b6040516020016108d391906128b4565b6040516020818303038152906040526113f2565b9050600b80549050816108fa9190612808565b9050600b81815481106109105761090f612839565b5b906000526020600020018054610925906126c7565b80601f0160208091040260200160405190810160405280929190818152602001828054610951906126c7565b801561099e5780601f106109735761010080835404028352916020019161099e565b820191906000526020600020905b81548152906001019060200180831161098157829003601f168201915b5050505050915050919050565b6109b6848484610525565b6109c284848484611594565b50505050565b606060006109fc6109d884611324565b6040516020016109e89190612922565b6040516020818303038152906040526113f2565b9050600c8054905081610a0f9190612808565b9050600c8181548110610a2557610a24612839565b5b906000526020600020018054610a3a906126c7565b80601f0160208091040260200160405190810160405280929190818152602001828054610a66906126c7565b8015610ab35780601f10610a8857610100808354040283529160200191610ab3565b820191906000526020600020905b815481529060010190602001808311610a9657829003601f168201915b5050505050915050919050565b6060610acb8261102b565b506000600660008481526020019081526020016000208054610aec906126c7565b80601f0160208091040260200160405190810160405280929190818152602001828054610b18906126c7565b8015610b655780601f10610b3a57610100808354040283529160200191610b65565b820191906000526020600020905b815481529060010190602001808311610b4857829003601f168201915b505050505090506000610b7661174b565b90506000815103610b8b578192505050610bce565b600082511115610bc0578082604051602001610ba8929190612944565b60405160208183030381529060405292505050610bce565b610bc984611762565b925050505b919050565b603260075410610c18576040517f08c379a0000000000000000000000000000000000000000000000000000000008152600401610c0f906129da565b60405180910390fd5b600060075490506000610c2a82610e30565b90506000610c3783610627565b90506000610c44846108b3565b90506000610c51856109c8565b90506000838383604051602001610c6a939291906129fa565b60405160208183030381529060405290506000600886600984604051602001610c969493929190612b0f565b60405160208183030381529060405290506000610ce583610cb68a611324565b610cbf856117cb565b604051602001610cd193929190612d20565b6040516020818303038152906040526117cb565b9050600081604051602001610cfa9190612dc9565b6040516020818303038152906040529050610d15338a61193d565b610d1f898261195b565b610d42604051806060016040528060258152602001613371602591398a336119b7565b600760008154610d5190612e1a565b919050819055507febb98688741ffa4c7589bf325de30cf7becb63de567842e1ccdb6cb949fdc82c338a604051610d89929190612e62565b60405180910390a1505050505050505050565b6000600560008473ffffffffffffffffffffffffffffffffffffffff1673ffffffffffffffffffffffffffffffffffffffff16815260200190815260200160002060008373ffffffffffffffffffffffffffffffffffffffff1673ffffffffffffffffffffffffffffffffffffffff16815260200190815260200160002060009054906101000a900460ff16905092915050565b60606000610e64610e4084611324565b604051602001610e509190612ed7565b6040516020818303038152906040526113f2565b9050600d8054905081610e779190612808565b9050600d8181548110610e8d57610e8c612839565b5b906000526020600020018054610ea2906126c7565b80601f0160208091040260200160405190810160405280929190818152602001828054610ece906126c7565b8015610f1b5780601f10610ef057610100808354040283529160200191610f1b565b820191906000526020600020905b815481529060010190602001808311610efe57829003601f168201915b5050505050915050919050565b60006a636f6e736f6c652e6c6f679050600080835160208501845afa505050565b60007f80ac58cd000000000000000000000000000000000000000000000000000000007bffffffffffffffffffffffffffffffffffffffffffffffffffffffff1916827bffffffffffffffffffffffffffffffffffffffffffffffffffffffff1916148061101457507f5b5e139f000000000000000000000000000000000000000000000000000000007bffffffffffffffffffffffffffffffffffffffffffffffffffffffff1916827bffffffffffffffffffffffffffffffffffffffffffffffffffffffff1916145b80611024575061102382611a56565b5b9050919050565b60008061103783611ac0565b9050600073ffffffffffffffffffffffffffffffffffffffff168173ffffffffffffffffffffffffffffffffffffffff16036110aa57826040517f7e2732890000000000000000000000000000000000000000000000000000000081526004016110a191906121c6565b60405180910390fd5b80915050919050565b60006004600083815260200190815260200160002060009054906101000a900473ffffffffffffffffffffffffffffffffffffffff169050919050565b600033905090565b6111058383836001611afd565b505050565b60008061111684611ac0565b9050600073ffffffffffffffffffffffffffffffffffffffff168373ffffffffffffffffffffffffffffffffffffffff161461115857611157818486611cc2565b5b600073ffffffffffffffffffffffffffffffffffffffff168173ffffffffffffffffffffffffffffffffffffffff16146111e95761119a600085600080611afd565b6001600360008373ffffffffffffffffffffffffffffffffffffffff1673ffffffffffffffffffffffffffffffffffffffff168152602001908152602001600020600082825403925050819055505b600073ffffffffffffffffffffffffffffffffffffffff168573ffffffffffffffffffffffffffffffffffffffff161461126c576001600360008773ffffffffffffffffffffffffffffffffffffffff1673ffffffffffffffffffffffffffffffffffffffff168152602001908152602001600020600082825401925050819055505b846002600086815260200190815260200160002060006101000a81548173ffffffffffffffffffffffffffffffffffffffff021916908373ffffffffffffffffffffffffffffffffffffffff160217905550838573ffffffffffffffffffffffffffffffffffffffff168273ffffffffffffffffffffffffffffffffffffffff167fddf252ad1be2c89b69c2b068fc378daa952ba7f163c4a11628f55a4df523b3ef60405160405180910390a4809150509392505050565b60606000600161133384611d86565b01905060008167ffffffffffffffff811115611352576113516124aa565b5b6040519080825280601f01601f1916602001820160405280156113845781602001600182028036833780820191505090505b509050600082602001820190505b6001156113e7578080600190039150507f3031323334353637383961626364656600000000000000000000000000000000600a86061a8153600a85816113db576113da6127d9565b5b04945060008503611392575b819350505050919050565b6000816040516020016114059190612ef9565b6040516020818303038152906040528051906020012060001c9050919050565b600073ffffffffffffffffffffffffffffffffffffffff168273ffffffffffffffffffffffffffffffffffffffff160361149657816040517f5b08ba1800000000000000000000000000000000000000000000000000000000815260040161148d919061232d565b60405180910390fd5b80600560008573ffffffffffffffffffffffffffffffffffffffff1673ffffffffffffffffffffffffffffffffffffffff16815260200190815260200160002060008473ffffffffffffffffffffffffffffffffffffffff1673ffffffffffffffffffffffffffffffffffffffff16815260200190815260200160002060006101000a81548160ff0219169083151502179055508173ffffffffffffffffffffffffffffffffffffffff168373ffffffffffffffffffffffffffffffffffffffff167f17307eab39ab6107e8899845ad3d59bd9653f200f220920489ca2b5937696c31836040516115879190612192565b60405180910390a3505050565b60008373ffffffffffffffffffffffffffffffffffffffff163b1115611745578273ffffffffffffffffffffffffffffffffffffffff1663150b7a026115d86110f0565b8685856040518563ffffffff1660e01b81526004016115fa9493929190612f65565b6020604051808303816000875af192505050801561163657506040513d601f19601f820116820180604052508101906116339190612fc6565b60015b6116ba573d8060008114611666576040519150601f19603f3d011682016040523d82523d6000602084013e61166b565b606091505b5060008151036116b257836040517f64a0ae920000000000000000000000000000000000000000000000000000000081526004016116a9919061232d565b60405180910390fd5b805181602001fd5b63150b7a0260e01b7bffffffffffffffffffffffffffffffffffffffffffffffffffffffff1916817bffffffffffffffffffffffffffffffffffffffffffffffffffffffff19161461174357836040517f64a0ae9200000000000000000000000000000000000000000000000000000000815260040161173a919061232d565b60405180910390fd5b505b50505050565b606060405180602001604052806000815250905090565b606061176d8261102b565b50600061177861174b565b9050600081511161179857604051806020016040528060008152506117c3565b806117a284611324565b6040516020016117b3929190612944565b6040516020818303038152906040525b915050919050565b606060008251036117ed57604051806020016040528060008152509050611938565b6000604051806060016040528060408152602001613396604091399050600060036002855161181c9190612ff3565b6118269190613027565b60046118329190613058565b67ffffffffffffffff81111561184b5761184a6124aa565b5b6040519080825280601f01601f19166020018201604052801561187d5781602001600182028036833780820191505090505b50905060018201602082018586518701602081018051600082525b828410156118f3576003840193508351603f8160121c168701518653600186019550603f81600c1c168701518653600186019550603f8160061c168701518653600186019550603f8116870151865360018601955050611898565b80825260038a51066001811461191057600281146119235761192b565b603d6001870353603d600287035361192b565b603d60018703535b5050505050505080925050505b919050565b611957828260405180602001604052806000815250611ed9565b5050565b8060066000848152602001908152602001600020908161197b9190613231565b507ff8e1a15aba9398e019f0b49df1a4fde98ee17ae345cb5f6b5e2c27f5033e8ce7826040516119ab91906121c6565b60405180910390a15050565b611a518383836040516024016119cf93929190613303565b6040516020818303038152906040527f1c7ec448000000000000000000000000000000000000000000000000000000007bffffffffffffffffffffffffffffffffffffffffffffffffffffffff19166020820180517bffffffffffffffffffffffffffffffffffffffffffffffffffffffff8381831617835250505050611ef5565b505050565b60007f01ffc9a7000000000000000000000000000000000000000000000000000000007bffffffffffffffffffffffffffffffffffffffffffffffffffffffff1916827bffffffffffffffffffffffffffffffffffffffffffffffffffffffff1916149050919050565b60006002600083815260200190815260200160002060009054906101000a900473ffffffffffffffffffffffffffffffffffffffff169050919050565b8080611b365750600073ffffffffffffffffffffffffffffffffffffffff168273ffffffffffffffffffffffffffffffffffffffff1614155b15611c6a576000611b468461102b565b9050600073ffffffffffffffffffffffffffffffffffffffff168373ffffffffffffffffffffffffffffffffffffffff1614158015611bb157508273ffffffffffffffffffffffffffffffffffffffff168173ffffffffffffffffffffffffffffffffffffffff1614155b8015611bc45750611bc28184610d9c565b155b15611c0657826040517fa9fbf51f000000000000000000000000000000000000000000000000000000008152600401611bfd919061232d565b60405180910390fd5b8115611c6857838573ffffffffffffffffffffffffffffffffffffffff168273ffffffffffffffffffffffffffffffffffffffff167f8c5be1e5ebec7d5bd14f71427d1e84f3dd0314c0f7b2291e5b200ac8c7c3b92560405160405180910390a45b505b836004600085815260200190815260200160002060006101000a81548173ffffffffffffffffffffffffffffffffffffffff021916908373ffffffffffffffffffffffffffffffffffffffff16021790555050505050565b611ccd838383611f0f565b611d8157600073ffffffffffffffffffffffffffffffffffffffff168373ffffffffffffffffffffffffffffffffffffffff1603611d4257806040517f7e273289000000000000000000000000000000000000000000000000000000008152600401611d3991906121c6565b60405180910390fd5b81816040517f177e802f000000000000000000000000000000000000000000000000000000008152600401611d78929190612e62565b60405180910390fd5b505050565b600080600090507a184f03e93ff9f4daa797ed6e38ed64bf6a1f0100000000000000008310611de4577a184f03e93ff9f4daa797ed6e38ed64bf6a1f0100000000000000008381611dda57611dd96127d9565b5b0492506040810190505b6d04ee2d6d415b85acef81000000008310611e21576d04ee2d6d415b85acef81000000008381611e1757611e166127d9565b5b0492506020810190505b662386f26fc100008310611e5057662386f26fc100008381611e4657611e456127d9565b5b0492506010810190505b6305f5e1008310611e79576305f5e1008381611e6f57611e6e6127d9565b5b0492506008810190505b6127108310611e9e576127108381611e9457611e936127d9565b5b0492506004810190505b60648310611ec15760648381611eb757611eb66127d9565b5b0492506002810190505b600a8310611ed0576001810190505b80915050919050565b611ee38383611fd0565b611ef06000848484611594565b505050565b611f0c81611f04610f286120c9565b63ffffffff16565b50565b60008073ffffffffffffffffffffffffffffffffffffffff168373ffffffffffffffffffffffffffffffffffffffff1614158015611fc757508273ffffffffffffffffffffffffffffffffffffffff168473ffffffffffffffffffffffffffffffffffffffff161480611f885750611f878484610d9c565b5b80611fc657508273ffffffffffffffffffffffffffffffffffffffff16611fae836110b3565b73ffffffffffffffffffffffffffffffffffffffff16145b5b90509392505050565b600073ffffffffffffffffffffffffffffffffffffffff168273ffffffffffffffffffffffffffffffffffffffff16036120425760006040517f64a0ae92000000000000000000000000000000000000000000000000000000008152600401612039919061232d565b60405180910390fd5b60006120508383600061110a565b9050600073ffffffffffffffffffffffffffffffffffffffff168173ffffffffffffffffffffffffffffffffffffffff16146120c45760006040517f73c6ac6e0000000000000000000000000000000000000000000000000000000081526004016120bb919061232d565b60405180910390fd5b505050565b6120d4819050919050565b6120dc613341565b565b6000604051905090565b600080fd5b600080fd5b60007fffffffff0000000000000000000000000000000000000000000000000000000082169050919050565b612127816120f2565b811461213257600080fd5b50565b6000813590506121448161211e565b92915050565b6000602082840312156121605761215f6120e8565b5b600061216e84828501612135565b91505092915050565b60008115159050919050565b61218c81612177565b82525050565b60006020820190506121a76000830184612183565b92915050565b6000819050919050565b6121c0816121ad565b82525050565b60006020820190506121db60008301846121b7565b92915050565b600081519050919050565b600082825260208201905092915050565b60005b8381101561221b578082015181840152602081019050612200565b60008484015250505050565b6000601f19601f8301169050919050565b6000612243826121e1565b61224d81856121ec565b935061225d8185602086016121fd565b61226681612227565b840191505092915050565b6000602082019050818103600083015261228b8184612238565b905092915050565b61229c816121ad565b81146122a757600080fd5b50565b6000813590506122b981612293565b92915050565b6000602082840312156122d5576122d46120e8565b5b60006122e3848285016122aa565b91505092915050565b600073ffffffffffffffffffffffffffffffffffffffff82169050919050565b6000612317826122ec565b9050919050565b6123278161230c565b82525050565b6000602082019050612342600083018461231e565b92915050565b6123518161230c565b811461235c57600080fd5b50565b60008135905061236e81612348565b92915050565b6000806040838503121561238b5761238a6120e8565b5b60006123998582860161235f565b92505060206123aa858286016122aa565b9150509250929050565b6000806000606084860312156123cd576123cc6120e8565b5b60006123db8682870161235f565b93505060206123ec8682870161235f565b92505060406123fd868287016122aa565b9150509250925092565b60006020828403121561241d5761241c6120e8565b5b600061242b8482850161235f565b91505092915050565b61243d81612177565b811461244857600080fd5b50565b60008135905061245a81612434565b92915050565b60008060408385031215612477576124766120e8565b5b60006124858582860161235f565b92505060206124968582860161244b565b9150509250929050565b600080fd5b600080fd5b7f4e487b7100000000000000000000000000000000000000000000000000000000600052604160045260246000fd5b6124e282612227565b810181811067ffffffffffffffff82111715612501576125006124aa565b5b80604052505050565b60006125146120de565b905061252082826124d9565b919050565b600067ffffffffffffffff8211156125405761253f6124aa565b5b61254982612227565b9050602081019050919050565b82818337600083830152505050565b600061257861257384612525565b61250a565b905082815260208101848484011115612594576125936124a5565b5b61259f848285612556565b509392505050565b600082601f8301126125bc576125bb6124a0565b5b81356125cc848260208601612565565b91505092915050565b600080600080608085870312156125ef576125ee6120e8565b5b60006125fd8782880161235f565b945050602061260e8782880161235f565b935050604061261f878288016122aa565b925050606085013567ffffffffffffffff8111156126405761263f6120ed565b5b61264c878288016125a7565b91505092959194509250565b6000806040838503121561266f5761266e6120e8565b5b600061267d8582860161235f565b925050602061268e8582860161235f565b9150509250929050565b7f4e487b7100000000000000000000000000000000000000000000000000000000600052602260045260246000fd5b600060028204905060018216806126df57607f821691505b6020821081036126f2576126f1612698565b5b50919050565b600060608201905061270d600083018661231e565b61271a60208301856121b7565b612727604083018461231e565b949350505050565b600081905092915050565b7f46495253545f574f524400000000000000000000000000000000000000000000600082015250565b6000612770600a8361272f565b915061277b8261273a565b600a82019050919050565b6000612791826121e1565b61279b818561272f565b93506127ab8185602086016121fd565b80840191505092915050565b60006127c282612763565b91506127ce8284612786565b915081905092915050565b7f4e487b7100000000000000000000000000000000000000000000000000000000600052601260045260246000fd5b6000612813826121ad565b915061281e836121ad565b92508261282e5761282d6127d9565b5b828206905092915050565b7f4e487b7100000000000000000000000000000000000000000000000000000000600052603260045260246000fd5b7f5345434f4e445f574f5244000000000000000000000000000000000000000000600082015250565b600061289e600b8361272f565b91506128a982612868565b600b82019050919050565b60006128bf82612891565b91506128cb8284612786565b915081905092915050565b7f54484952445f574f524400000000000000000000000000000000000000000000600082015250565b600061290c600a8361272f565b9150612917826128d6565b600a82019050919050565b600061292d826128ff565b91506129398284612786565b915081905092915050565b60006129508285612786565b915061295c8284612786565b91508190509392505050565b7f4f6e6c79203530204e4654732063616e206265206d696e7465642e204e6f206d60008201527f6f7265204e4654732063616e206265206d696e7465642e000000000000000000602082015250565b60006129c46037836121ec565b91506129cf82612968565b604082019050919050565b600060208201905081810360008301526129f3816129b7565b9050919050565b6000612a068286612786565b9150612a128285612786565b9150612a1e8284612786565b9150819050949350505050565b60008190508160005260206000209050919050565b60008154612a4d816126c7565b612a57818661272f565b94506001821660008114612a725760018114612a8757612aba565b60ff1983168652811515820286019350612aba565b612a9085612a2b565b60005b83811015612ab257815481890152600182019150602081019050612a93565b838801955050505b50505092915050565b7f3c2f746578743e3c2f7376673e00000000000000000000000000000000000000600082015250565b6000612af9600d8361272f565b9150612b0482612ac3565b600d82019050919050565b6000612b1b8287612a40565b9150612b278286612786565b9150612b338285612a40565b9150612b3f8284612786565b9150612b4a82612aec565b915081905095945050505050565b7f7b226e616d65223a202200000000000000000000000000000000000000000000600082015250565b6000612b8e600a8361272f565b9150612b9982612b58565b600a82019050919050565b7f222c20226465736372697074696f6e223a20224120686967686c79206163636c60008201527f61696d656420636f6c6c656374696f6e206f6620737175617265732e222c202260208201527f696d616765223a2022646174613a696d6167652f7376672b786d6c3b6261736560408201527f36342c0000000000000000000000000000000000000000000000000000000000606082015250565b6000612c4c60638361272f565b9150612c5782612ba4565b606382019050919050565b7f222c2022696d616765223a2022646174613a696d6167652f7376672b786d6c3b60008201527f6261736536342c00000000000000000000000000000000000000000000000000602082015250565b6000612cbe60278361272f565b9150612cc982612c62565b602782019050919050565b7f227d000000000000000000000000000000000000000000000000000000000000600082015250565b6000612d0a60028361272f565b9150612d1582612cd4565b600282019050919050565b6000612d2b82612b81565b9150612d378286612786565b9150612d4282612c3f565b9150612d4e8285612786565b9150612d5982612cb1565b9150612d658284612786565b9150612d7082612cfd565b9150819050949350505050565b7f646174613a6170706c69636174696f6e2f6a736f6e3b6261736536342c000000600082015250565b6000612db3601d8361272f565b9150612dbe82612d7d565b601d82019050919050565b6000612dd482612da6565b9150612de08284612786565b915081905092915050565b7f4e487b7100000000000000000000000000000000000000000000000000000000600052601160045260246000fd5b6000612e25826121ad565b91507fffffffffffffffffffffffffffffffffffffffffffffffffffffffffffffffff8203612e5757612e56612deb565b5b600182019050919050565b6000604082019050612e77600083018561231e565b612e8460208301846121b7565b9392505050565b7f434f4c4f55520000000000000000000000000000000000000000000000000000600082015250565b6000612ec160068361272f565b9150612ecc82612e8b565b600682019050919050565b6000612ee282612eb4565b9150612eee8284612786565b915081905092915050565b6000612f058284612786565b915081905092915050565b600081519050919050565b600082825260208201905092915050565b6000612f3782612f10565b612f418185612f1b565b9350612f518185602086016121fd565b612f5a81612227565b840191505092915050565b6000608082019050612f7a600083018761231e565b612f87602083018661231e565b612f9460408301856121b7565b8181036060830152612fa68184612f2c565b905095945050505050565b600081519050612fc08161211e565b92915050565b600060208284031215612fdc57612fdb6120e8565b5b6000612fea84828501612fb1565b91505092915050565b6000612ffe826121ad565b9150613009836121ad565b925082820190508082111561302157613020612deb565b5b92915050565b6000613032826121ad565b915061303d836121ad565b92508261304d5761304c6127d9565b5b828204905092915050565b6000613063826121ad565b915061306e836121ad565b925082820261307c816121ad565b9150828204841483151761309357613092612deb565b5b5092915050565b60006020601f8301049050919050565b600082821b905092915050565b6000600883026130e77fffffffffffffffffffffffffffffffffffffffffffffffffffffffffffffffff826130aa565b6130f186836130aa565b95508019841693508086168417925050509392505050565b6000819050919050565b600061312e613129613124846121ad565b613109565b6121ad565b9050919050565b6000819050919050565b61314883613113565b61315c61315482613135565b8484546130b7565b825550505050565b600090565b613171613164565b61317c81848461313f565b505050565b5b818110156131a057613195600082613169565b600181019050613182565b5050565b601f8211156131e5576131b681612a2b565b6131bf8461309a565b810160208510156131ce578190505b6131e26131da8561309a565b830182613181565b50505b505050565b600082821c905092915050565b6000613208600019846008026131ea565b1980831691505092915050565b600061322183836131f7565b9150826002028217905092915050565b61323a826121e1565b67ffffffffffffffff811115613253576132526124aa565b5b61325d82546126c7565b6132688282856131a4565b600060209050601f83116001811461329b5760008415613289578287015190505b6132938582613215565b8655506132fb565b601f1984166132a986612a2b565b60005b828110156132d1578489015182556001820191506020850194506020810190506132ac565b868310156132ee57848901516132ea601f8916826131f7565b8355505b6001600288020188555050505b505050505050565b6000606082019050818103600083015261331d8186612238565b905061332c60208301856121b7565b613339604083018461231e565b949350505050565b7f4e487b7100000000000000000000000000000000000000000000000000000000600052605160045260246000fdfe416e204e465420772f20494420257320686173206265656e206d696e74656420746f2025734142434445464748494a4b4c4d4e4f505152535455565758595a6162636465666768696a6b6c6d6e6f707172737475767778797a303132333435363738392b2fa26469706673582212205ac0aa7734d82267aeb29638e2d512bdf997728b24369f49ec92c9bdfbafdf4d64736f6c634300081800333c73766720786d6c6e733d27687474703a2f2f7777772e77332e6f72672f323030302f73766727207072657365727665417370656374526174696f3d27784d696e594d696e206d656574272076696577426f783d273020302033353020333530273e3c7374796c653e2e62617365207b2066696c6c3a20626c61636b3b20666f6e742d66616d696c793a2073657269663b20666f6e742d73697a653a20323470783b207d3c2f7374796c653e3c726563742077696474683d273130302527206865696768743d2731303025272066696c6c3d2727202f3e3c7465787420783d273530252720793d273530252720636c6173733d27626173652720646f6d696e616e742d626173656c696e653d276d6964646c652720746578742d616e63686f723d276d6964646c65273e",
  "linkReferences": {},
  "deployedLinkReferences": {}
}